:020000040000fa
:10000000f0ff03208d3500008b350000573f0000c6
:10001000434100004b430000774700000000000010
:10002000000000000000000000000000432a000063
:100030005340000000000000432a0000c14d0000b2
:10004000432a0000432a0000432a0000432a0000fc
:10005000432a0000432a0000432a0000432a0000ec
:10006000432a0000432a0000432a0000432a0000dc
:10007000432a0000432a0000432a0000432a0000cc
:10008000432a0000432a0000432a0000432a0000bc
:10009000432a0000432a0000432a0000432a0000ac
:1000a000432a0000432a0000432a0000432a00009c
:1000b000432a0000432a0000432a0000432a00008c
:1000c000432a0000432a0000432a0000432a00007c
:1000d000432a0000432a0000432a0000432a00006c
:1000e000432a0000432a0000000000000000000036
:1000f00000000000432a0000432a0000432a0000b9
:10010000432a0000432a0000432a0000432a00003b
:10011000432a0000432a0000432a0000432a00002b
:10012000432a0000432a0000432a0000432a00001b
:10013000432a0000432a00003d3d00003d3d0000f1
:100140003d3d00003d3d0000432a0000432a0000e1
:10015000432a0000432a00000000000000000000c5
:10016000000000000000000000000000000000008f
:100170000000000000000000432a0000432a0000a5
:10018000432a0000432a0000432a0000432a0000bb
:1001900000000000432a0000432a0000432a000018
:1001a000432a0000432a0000432a0000432a00009b
:1001b000432a0000432a0000432a0000432a00008b
:1001c000432a0000432a0000432a0000432a00007b
:1001d000432a0000432a0000432a0000432a00006b
:1001e000432a0000432a0000432a0000432a00005b
:1001f000432a0000432a0000432a0000432a00004b
:10020000432a00000000000000000000432a000014
:10021000432a0000432a0000432a0000432a00002a
:10022000432a0000432a0000432a0000432a00001a
:10023000432a0000432a0000432a0000432a00000a
:10024000432a0000432a0000432a0000432a0000fa
:10025000432a0000432a0000432a0000432a0000ea
:020000040000fa
:10026000f8b500bff8bc08bc9e467047f9430000d3
:10027000f8b500bff8bc08bc9e467047d5430000e7
:020000040000fa
:08028000cc1b0000010000008e
:020000040000fa
:100288002de9f04f2ded028bd2e9008997b0cde929
:100298000c138b6808930b690f90d1e900b614937f
:1002a800cd68002200234046494604f0f7f940b9da
:1002b8001bf0040f32d11bf00803059330d0202324
:1002c80003e089f0004399462d232b70089b03f126
:1002d800ff3a012305934c4929f0004300208b4243
:1002e80008bf80451fd10d9b413b192b059b94bf2f
:1002f800464947492b44184604f0aefd284604f009
:1003080083fccdf800b00246089b0f98294603f0fd
:100318007df917b0bdec028bbde8f08f2b23d4e735
:10032800ddf820a0d7e7994208bf404509d20d9bc8
:10033800413b192b059b94bf364937492b44184636
:10034800dae7002200234046494604f0f7f99fed1a
:100358002c7b8ded027b48b300240d9804f05bfde7
:10036800002ec3b20993c0f2d781672b5ad1002e51
:1003780008bf0126231d02dbb442c0f2c6816527ef
:1003880061e09ded067b8ded027b01340022234b5d
:10039800dde9020102f0abfc42464b46cde906011d
:1003a80004f060f90028ecd000271fe00446ede7d0
:1003b80014f5967f11da87b90022194b4046494651
:1003c80002f095fc002280468946154bdde90201c2
:1003d80002f08dfccde902010127dde902010022ce
:1003e8000e4b02f01ffacde90201013cdde90223c0
:1003f8004046494604f052f90028d9d1ade700bf7c
:10040800000000000000f03f0000f07f004e0000f8
:10041800044e0000084e00000c4e0000000024406e
:1004280000005043099f662f06f101060bd1002cee
:1004380004da9fedbd7b8ded027b0024099b672bc1
:1004480018bf361966279ded027bcde906898ded2b
:100458000a7b00230e93dde90a23dde9060102f099
:10046800e1f941ec100b02f067fe51ec100bb0ee15
:10047800408af0ee608a03f0f8feb0ee480af0ee2b
:10048800680a069b1093079b159083f0004311930d
:100498009ded0a1b9ded102b04f028fa53ec102b50
:1004a80083f000430793dde90a01a34b8ded060aab
:1004b800002202f0b7f90e9b01339e42cde90a01f2
:1004c8000e93c8d100229d4b02f011fccde90a0120
:1004d80002460b46dde9060104f0e0f8002840f08a
:1004e8008180dde90a23dde9060104f027f910b16e
:1004f800159bda0776d5dde90a234046494601f01f
:1005080059ff0022cde906018b4bdde9020102f01b
:10051800eefbdde90623cde90a0104f04df80028d9
:1005280065d0662f04f1010465d10136a146a9eb17
:1005380006034ff00008059e1093cdf80880109b25
:10054800994540f08180029b002b00f0c880a819d3
:100558000022652f027029d1149b1499013b944203
:10056800ea54c1f1030ebcbf644201220a21002ce7
:1005780040f0bc800eeb030cbcf1000f00f3b6801a
:10058800002a03f1ff3114bf2d222b226a540d9a41
:10059800023b413a192a05eb030198bf45279e42c1
:1005a8000f70aaf1020a01da04f056fc0bf00303fb
:1005b800022b7ff4a3aebaf1000f7ff79fae284657
:1005c80004f022fb05eb0a03059a824240f3998066
:1005d800059b2b4418465246302104f0a9fb002302
:1005e80008938be69fed527b8ded0a7b83e79dedab
:1005f800027b8ded0a7b652f14bfa1464ff00009e1
:1006080095e7029a52b9b9f1000f07da0e992e222e
:100618006a54012201360af1ff3a029205eb0801f9
:10062800aa193144302001e002f8010b9142fbd1b4
:1006380008eb06023033aaeb080808f1ff3a561c0b
:10064800ab544ff0000828e00c9b0e961b69053b45
:10065800b3427ff678afdde90a23dde9060102f04f
:10066800e1f841ec100b02f067fd51ec100bb0ee15
:10067800408af0ee608a03f0f8fd0bf010020928ba
:100688000346a8bf09230243bbd1099a672ab8d1f8
:10069800b9f1000fc2da08f10108069b1293079b13
:1006a800b0ee480af0ee680a83f0004313939ded1c
:1006b8000a1b9ded122b04f019f953ec102b83f053
:1006c80000430793dde90a0100221b4b8ded060a62
:1006d80002f0a8f809f1ff39cde90a012fe71bf06c
:1006e800100f1ebf2e23ab55013630e7b4fbf1fccb
:1006f800013b01fb1c443034ec540af1ff3a6446d8
:1007080035e72a5c1a5401385ee7002cbff69aae2a
:10071800662788e606262de6099b672bfad01f4632
:10072800062680e6aff30080000000000000f03fde
:1007380000000000000000000000244000001440f9
:020000040000fa
:100748002de9f04f95b0cde912030b68089392edaf
:10075800007b4b680a938b6809930b690d93cc68ef
:100768000022002351ec170b8ded047b03f096ff5c
:1007780040b9089b580734d4089b13f0080732d0b7
:10078800202306e0dde9042181f00043cde90423bc
:100798002d232370099b01275a1edde90403dff886
:1007a800f8b223f000414ff0000a594508bf504500
:1007b8001bd1139b413b192b04eb070094bfb04995
:1007c800b04904f049fbaf4804f01efa089b0093b7
:1007d8000246099b1298214602f018ff15b0bde8a1
:1007e800f08f2b23d5e7099ad7e7139b8b45a3f105
:1007f800410308bf82450b9309d2192b04eb07006c
:1008080094bfa149a14904f027fba048dce73021a7
:10081800e1550b997b1c1a2934bf58217821e154e2
:10082800931e079300220023dde90401023703f039
:1008380085ff002800f07b819fed8f7b8ded027b8b
:1008480000250a9bdde90289002bdde904abb8bf6e
:1008580018230e93002642464b465046594601f04f
:10086800e1ff41ec100b02f067fc42464b4651ecad
:10087800100b8ded100b02f03afa02460b4650466b
:10088800594604f017fb824b82468b464046494640
:10089800002202f02cfa731c0c930a9b002b804652
:1008a800894606da002200235046594603f046ffdf
:1008b80028b90e9bb34200f3408101330c93002208
:1008c800744b4046494602f012fa80468946024671
:1008d8000b465046594603f0e1fe002840f02f81b0
:1008e80042464b465046594603f028ff30b1dde9f1
:1008f800100103f0bafcc10740f1218142464b4682
:10090800dde9040101f056fdcde90401dde904212a
:1009180021f00043604900208b4208bf82423ff427
:1009280048af4ff000083e46c246c1460d9b053b06
:10093800b342b34633d9dde90223dde9040101f00e
:1009480071ff41ec100b02f0f7fb51ec100b8ded31
:100958000e0b03f08afc002840f0f680b9f1000f76
:1009680000f0f28008f10108dde90223dde90e015b
:1009780002f0bdf902460b46dde9040104f09afadb
:10098800434bcde904010022dde9020102f0aff991
:100998000c9b09f101094b45cde90201c6d1baf119
:1009a800000f1ed1b8f1000f00f015810a9b002b33
:1009b80040f31181089bda0700f10d81a3192e225b
:1009c8001a7008eb06022244302100bf03f8011f09
:1009d8009a42fbd1079b46446fea08084344013614
:1009e80007930d9b0d990022a019013b95420270b7
:1009f800b8bf6d42e254c1f1020eb8bf01224ff0f8
:100a08000a08002d40f0d7800eeb030cbcf1010f53
:100a180000f0d180002a03f1ff3114bf2d222b22d0
:100a280062540b9a023b1a2a04eb030134bf50228a
:100a380070229e420a7001da04f00efa089b03f055
:100a48000303022b14d1079ba3f10208b8f1000f8e
:100a58000edd204604f0d8f804eb0803b84280f213
:100a6800b68042463021e01904f062f90023099368
:100a78002046a9e6aff30080000000000000f03f28
:100a8800f04d0000f44d0000f84d0000fc4d000052
:100a98000000b03f000020400000f07fcde902894f
:100aa8000135dde902231046194601f083fc804632
:100ab800894602460b46dde9040103f0effd0028f4
:100ac800ecd0dff82cb1dff82c914ff0000a4ff092
:100ad8000008dde90223dde9040103f0dffd002859
:100ae8003ff4afae52465b46dde9020102f0fff883
:100af8000022002303f022fe78b142464b46dde98e
:100b0800020102f0f4f84246cde902014b46dde964
:100b1800040102f0ecf8cde90401dde902015246d6
:100b28005b4602f0e4f8013dcde90201d1e79fed13
:100b38002e7b05468ded027bb3e70c9e8be64ff0ce
:100b480000084ff00009d9e6baf1000f0bd1b9f14e
:100b5800000f08d02e2304f80b30079b013b013609
:100b680007934ff0010a04eb0803a219334430211c
:100b780002e000bf02f8011b9a42fbd1079b06eb7b
:100b8800080ba3eb08080b9b0928d4bf303057305b
:100b9800192b06d840f02003613b192b01d804f02b
:100ba80041f908f1ff330bf1010604f80b00079334
:100bb8004ff00008d8e60799b5fbf8fc013b08fba5
:100bc8001c5530350139e5540791654619e7225c13
:100bd8001a54013842e7089bdb067ff502af2e2343
:100be800a3550136fde600bf000000000000f03ffd
:080bf8000000e03f0000504343
:020000040000fa
:100c00002de980489bb003f04dfa4ff47a7004f060
:100c10007ff8ad4803f0eefe0421ac4804f036f94d
:100c2000002701243e460aad1ce0002f1add1aab56
:100c30003b4403f8506c102f01d0374612e006a950
:100c400002e0a94200f0e68111f8013ba3f1300275
:100c5000d2b2092af5d923f02003413bdbb2052ba0
:100c6000efd93746214602a804f00cf90028f9d044
:100c70009df808300d2bd8d00a2bd6d01e2ff1dcd2
:100c80001aaa3a4402f8503c0137ebe714f8011b6a
:100c9000a6fb02731b0903eb4303a2ebc30301fa98
:100ca00003f35d4001328242f0d1284604f0e4f8bb
:100cb0002a468749874803f0ebfe874cdfed878a99
:100cc000dff880924de18249854803f0e1fe02237e
:100cd000237004f0bff80546824b186044f2682286
:100ce0007b49814803f0d4fe44f26727142600bff5
:100cf00004f0b0f8401bb84210d82378022b40f023
:100d00006c8101f001fa304604f002f8f0e70223aa
:100d100023706f49754803f0bbfe5ae12378022b1c
:100d200040f05b816a49724803f0b2fe00232370f1
:100d300057e15022002106a803f0feff6d4b1b78ff
:100d400023b36d4f00260df1180adff8a8b10ae0b1
:100d500006a803f05dff694b1b882af800301137a5
:100d60002e46454512da751c00953b46644a102113
:100d700002a803f034ff02a906a803f091ff9bf834
:100d8000008008f1ff33b342e9dde1e706aa5049ec
:100d90005c4803f07dfe06aa5b495c4802f0fcfc5f
:100da0001fe104f057f85a4b1b6898423ad3484960
:100db000584803f06dfe584a5349584802f0ecfc7d
:100dc000534a136803f5fa6313602be0304603f0cf
:100dd0009fff04f03ff8854212d92378032b0fd1ef
:100de00001f092f904f036f83b68c01ab0f57a6f5a
:100df000ecd937494a4803f04bfe0023237004e046
:100e000003f062fd2378032b36d03149454803f0c7
:100e10003ffe0821444804f039f800bf04f03ef8d2
:100e20000028fbd10a2003f073ff04f013f8d9f86f
:100e30000030c01a44f26723984200f2858023787c
:100e4000002b00f0848001f05ff92378012ba8d0fb
:100e5000032be7d1354b1a78002ad6d040f6b833a9
:100e600003fb02f3d9f800501d441949304803f040
:100e70000ffe1c4f0a26ace703f0d6fe07ee900ae1
:100e8000f8eee77ab7ee007a77ee877a67eea87a1f
:100e900067ee887afdeee77a17ee905acded007a8c
:100ea0000b4b244a202106a803f099fe2b461f4a2b
:100eb00012780749204803f0ebfd06aa1f49204895
:100ec00002f06afca1e700bf881b0000a81b00001d
:100ed000a0050020b01b0000b30500200000003872
:100ee000fc1b0000e4050020681c00004c1c0000f6
:100ef0009c1c0000b304002008040020d81c000043
:100f0000d01c0000dc1c0000702a0000e02a000059
:100f1000e80500202c1d0000441c0000902a000061
:100f20006c1d0000bc1d0000d01d0000b20500209b
:100f3000441d0000901d0000981d0000b405002015
:100f4000202b0000ec0500202378012b58d0002333
:100f500023703949394803f09bfd4ff47a7003f050
:100f6000d7fe3549364803f093fd0023354a137008
:100f7000354a1370354a137003f06cff0546344b45
:100f80001b682bb1c31a44f2672293427ff69baed3
:100f900003f04afe07ee900af8eee77ab7ee007a21
:100fa00077ee877a67eea87ab5ee007af4eec77a24
:100fb000f1ee10fa7ff5abae01232370244b1d60d8
:100fc0001d49244803f064fd234a2449244802f0c3
:100fd000e3fb2378022b3ff47cae2378012b3ff414
:100fe000a8ae03f037ffc9f800001e4b186044f2aa
:100ff000682211491c4803f04bfd9fed1c8a14e741
:101000000d491b4803f044fd1a4a14491a4802f0de
:10101000c3fb9ce7084c06a9204603f021ff2146ac
:10102000164803f035fd03f015ff0546204603f092
:10103000effd0022124e36e6a0050020081e00003b
:10104000d41b0000b2050020b3040020b40500202a
:10105000e0050020281c0000441c0000702a00004d
:10106000902a0000e8050020fc1c00000000c84297
:10107000dc1d0000041e0000702b0000341e000068
:04108000abaaaaaac3
:020000040000fa
:101084002de9f04fedb00023054616460391049375
:101094009946039b1b78002b62d00023cde90533ce
:1010a40007930aab089303a980232846099303f006
:1010b400f1fb0446039b1a780ab1252a40d104980f
:1010c400204404901a78252a31d15a1c0024039212
:1010d40007945a782a2a04bf02330393039808bf5b
:1010e400012403f00df901460790284603f0a6fdfc
:1010f400039b1a78303a092a48d903a803f022fa44
:10110400039b8046187803f088fe672861dc652815
:1011140080f2c680612800f0c3803adc252800f004
:10112400ef805b2800f00c81039b013303937b1c4d
:1011340040f0f980b9f1000f08bf4ff0ff390fe01c
:10114400eb6bea6c93420fd25a1cea631f78039b41
:101154001b78bb420ed0eb6c13b1eb6b013beb6322
:1011640048466db0bde8f08f284602f06ffe074692
:101174000130ecd1049b01330493039b03a9013395
:101184002846039303f086fb044493e70133039357
:10119400aee7632800f098806428c5d104ab05aaa3
:1011a4002aa9284603f016fb0028c0f26a81039b93
:1011b40001330393002c40f0b680334601224146ac
:1011c4002aa802f025fb0028044667da0134b1d0ce
:1011d400c6e7702841d00bdc6e2850d02fdc69287c
:1011e400a2d104ab05aa2aa9284601f0d7fcdbe763
:1011f400752813d0782829d0732895d1b8f1800f99
:1012040092d1039b01330393002c77d133681a1dc9
:1012140032601b680093012204ab68e004ab05aaaa
:101224002aa9284603f058fe0028c0f22a81039b0d
:1012340001330393002c76d133462246bfe704ab37
:1012440005aa2aa9284603f047feede704ab05aa40
:101254002aa9284603f040fee6e704ab05aa2aa91a
:10126400284603f039fe0028c0f20b81039b0133aa
:101274000393002c57d133462246f021a0e7039b69
:10128400049a01330393d317cde92a23002c4ad1be
:101294003346224641462aa802f0bafaa144f8e6a7
:1012a40004ab05aa2aa9284603f016fe0028c0f2ba
:1012b400e880039b01330393002c34d1324641462a
:1012c4002aa802f0f9ff7ee7b8f1800f7ff42caf73
:1012d400079b0bb901230793039b013303935cb969
:1012e40033681a1d32601b680093002204ab05a901
:1012f400284602f079f866e70023f5e7002389e73a
:10130400b8f1800f7ff410af039bea6c01330393b1
:10131400eb6b934209d25a1cea631878252808d14a
:10132400049b013304930024b8e7284602f08efda1
:10133400f4e7eb6c002bf6d0eb6b013beb63f2e7cd
:10134400b8f1800f7ff4f0ae002c39d133681a1d48
:101354003260d3f80080039b5a1c03925a785e2aa9
:101364000cbf012700272aac08bf023340f2011248
:101374003946204608bf039303f0dcfc00232370a6
:10138400039b1a782d2a1ed101330393c7f101035d
:1013940084f82e30c7f10107039a13785d2b1bd113
:1013a400b8f1000f5cd1eb6bea6c934264d25a1c27
:1013b400ea631f78e3195b78002b59d19a463ae027
:1013c4004ff00008c7e75d2ae4d101330393c7f166
:1013d400010384f85e30dde7002be1d02d2b06d02d
:1013e400039b13f8012b039322445770d4e7049b07
:1013f4001b78002bf4d05d2bf2d0531c0393029b7b
:101404001b7851788b42ebda0133e754f9e700bfdc
:1014140008f80b70049b013304930bf1010bea6b86
:10142400eb6c9a42da461ed2531ceb631778e3192d
:101434005b78002becd1eb6c13b1eb6b013beb63f2
:10144400039b01330393baf1000f3ff46daeb8f17f
:10145400000f3ff469ae002308f80a3001241de7a9
:101464004ff0000bdbe7284602f0f0fc0746dee70e
:10147400049b0133049396e7284602f0e7fc0746f1
:0814840098e70446a2e600bf50
:020000040000fa
:10148c002de9f04f242985b006460f46144601d8a5
:10149c00012903d1b64b16221a6050e0f36bf26ca3
:1014ac00934220d25a1cf26318782028f6d0a0f16f
:1014bc000903042bf2d92b2801d02d281bd1f36b57
:1014cc00f26c2d284ff0ff3a18bf4ff0000a9342f0
:1014dc000dd25a1cf2631878f26c7fb1102f4ed1da
:1014ec0030280dd04be0304602f0acfcdde7304646
:1014fc0002f0a8fcf0e74ff0000aede730283dd1f0
:10150c00f36b934222d25a1cf263187840f02003fa
:10151c00782b2ad1f36bf26c93421bd25a1cf263d8
:10152c001878944b03445b780f2b40f2c180f36c1a
:10153c00002b00f09581f36b84b1023bf363002424
:10154c0000252046294605b0bde8f08f304602f054
:10155c0079fcdbe7304602f075fce2e7013bf36314
:10156c000021304603f066fbe9e7002f00f0eb802a
:10157c000a2f40f09e8000247f4d1ae00a277d4bf5
:10158c0003445b78bb42f3d312b1f36b013bf363bf
:10159c000021304603f04efb7ce70a2303fb0404d6
:1015ac00f26bf36c9a42a4f130046bd2531cf363cc
:1015bc001078a0f13003092b01d8ac42edd90025ed
:1015cc00a0f1300109293dd86c4b4ff09932ab4258
:1015dc0008bfa24217d34fea850ca3001b194cea93
:1015ec00947245eb020213eb03086fea01030093bc
:1015fc004ff0ff33019342eb0209dde900234b4529
:10160c0008bf424542d25b4b184498464278ba42d6
:10161c0018d2f36bf26c934280f00a815a1cf2637d
:10162c00187840444378bb42f3d3514b0e99222295
:10163c001a60dde90e45002301f00102134318bfc7
:10164c004ff0000af36c13b1f36b013bf363dde96c
:10165c000e239d4208bf9442c0f0fa800e990023dd
:10166c0001f00102134340f0e780baf1000f40f0a3
:10167c00e3803f4b22221a600f9b11f1ff3443f1a0
:10168c00ff355ee7304602f0ddfb92e718eb010414
:10169c004ff0000349eb0305f26bf36c9a4203d253
:1016ac00531cf36310788be7304602f0cbfb87e7d3
:1016bc0010277c1e3c402f4d40f0b48017237b43f9
:1016cc00c3f342132b4493f801b12b185b789f4260
:1016dc0002d9b4f1006f38d34ff0ff33cbf12001b6
:1016ec00abf1200223fa0bf803fa01f148ea0108e6
:1016fc0023fa02f2002548ea020823fa0bf91d4be3
:10170c00034459788f427ff67eafa94508bfa045a8
:10171c00fff479afabf1200004fa00f005fa0bf2fc
:10172c00cbf12003024324fa03f342ea0305f26be4
:10173c00f36c04fa0bf09a4241ea000414d2531ce5
:10174c00f3631078dbe70827b3e704fa0bf41c43c8
:10175c00f26bf36c9a4203d2531cf3631078b4e728
:10176c00304602f06ffbb0e7304602f06bfbc6e789
:10177c00fc0500204a2f00009899991999999919fc
:10178c0004fb0734f26bf36c9a4247d2531cf3639d
:10179c0010782b185b789f4202d9334a9442efd9c8
:1017ac000025324b034459788f427ff62caf4ff013
:1017bc0000084ff0000965b1a4fb07234ff0000ca3
:1017cc001a466346e5fb07231bb14ff001084ff0a7
:1017dc00000958ea09037ff416af5ffa81f86fea43
:1017ec00080102914ff0ff310391dde902bca7fb28
:1017fc00042307fb05339c4508bf93454ff00009b4
:10180c00fff401af12eb080443eb0905f26bf36c28
:10181c009a4209d2531cf3631078c2e7304602f0a7
:10182c0011fbb6e70024b4e7304602f00bfbb8e737
:10183c00304602f007fbf4e6dde90e23ab4208bfad
:10184c00a24205d20a4b22221a60dde90e4578e647
:10185c00baf1ff3f7ff475ae644265eb450570e667
:10186c00002c7ff46cae7be6c6711c074a2f00007f
:04187c00fc05002047
:020000040000fa
:101880002de9f041aeb006461546059100270599b1
:101890000b78002b00f0fa8000244ff0ff33cde9e5
:1018a00009430eab0c9380230b940d930b5d0bb18e
:1018b000252b26d134b12246304602f063fe059b2b
:1018c00023440593059b1a78252a40f0d78003f11d
:1018d0000108cdf81480059803782b2b1ad025d851
:1018e000202b1bd0232b1dd02a2b27d002f00afd42
:1018f0000b90059b1a78303a092a2ed801330593ac
:10190000f7e70134d2e7099b43f001030130099363
:101910000590e0e7099b43f00403f7e7099b43f0d8
:101920000803f3e7099b43f01003efe72d2bead000
:10193000302bd9d1099b43f00203e7e72b681a1d2e
:101940001b682a600130002b05900b9305da099a79
:101950005b4282f0010209920b93099bda0744bfb4
:1019600023f002030993059b1a782e2a0dd1002239
:10197000581c0a9205905a782a2a25d102330593d9
:101980002b681a1d1b682a600a9305a802f0dcfd6b
:10199000059b0390187803f042fa6928039979d0df
:1019a00032dc632800f0cb8019dc252800f0d980d8
:1019b000612853d000234ff0ff32cdf814800993f3
:1019c0000b930a920093d4e002f09cfc0a90059bd2
:1019d0001a78303a092ad8d801330593f7e76428f2
:1019e00058d06728e6dc2a4606a802f0d9ff00286e
:1019f00000f0a180059b5a1c05921b7806aa09a934
:101a00003046fef741fc38e0702873d015dc6e28b4
:101a100000f08c806f28cdd12b46002206a801f063
:101a2000f5fb002800f08780059b06aa013309a971
:101a30003046059302f01df81fe075283ad078284b
:101a400048d07328b6d1802975d1059b2a68013307
:101a50000593131d2b60126800237de02a4606a81b
:101a600002f09eff002866d0059b5a1c05921b7849
:101a700006aa09a93046fef767fe04443c44a74283
:101a80007add3e4b4f221a604ff0ff3738462eb0ba
:101a9000bde8f0812b46012206a801f0b7fb002823
:101aa00049d0059b06aa013309a93046059301f0e8
:101ab00003fce2e72b46002206a801f0a7fb002862
:101ac00039d0059b06aa013309a93046059302f0d7
:101ad00017fad2e72b46002206a801f097fb50b375
:101ae000059b5a1c05921b7806aa09a9304601f0ed
:101af0009af9c2e72b460022f02106a801f086fbe6
:101b0000c8b1059b01330593dde9062313430bd1cf
:101b10001b4803f07df8099b009319490b9b024673
:101b2000304601f077fda8e77823dde72b463a1928
:101b300006a801f0adfe059b013305939ee78029c1
:101b4000f9d1059b013305932b681a1d1b682a6088
:101b50008df8183006aa012309a9304602f0a4f92d
:101b60008be78029e7d1059b01330593099b0093ff
:101b70000b9b04490122d3e7274688e6fc05002099
:081b8000a44e0000aa4e000073
:020000040000fa
:101b880053656e64696e672041544920746f2066fe
:101b9800657463682045554936342e2e2e0d000095
:101ba8004154490d000000005b25735d20696e6992
:101bb8007452616e646f6d5365656428293a2073a9
:101bc8006565643d256c750d0a0000000d0a5b25ee
:101bd800735d203d3d3d3d3d3d3d3d204e455720fb
:101be800524f554e44203d3d3d3d3d3d3d3d0d0a46
:101bf800000000005b25735d20436f6f6c646f7796
:101c08006e2c2063616e6e6f7420626520434820dd
:101c18007468697320726f756e640d0a00000000a5
:101c28005b25735d20456c656374656420434c5582
:101c3800535445525f484541440d0a00726f756e12
:101c4800640000005b25735d2057696c6c204a4f67
:101c5800494e206120636c75737465720d0a00002b
:101c68005b25735d206a6f696e436c75737465726a
:101c780028293a2077616974696e67207570207425
:101c88006f20256c756d7320666f722043485f4125
:101c9800440d0a005b25735d206a6f696e436c759d
:101ca8007374657228293a2074696d6564206f75ac
:101cb8007420e28692206261636b20746f2049442d
:101cc8004c450d0a0000000025733a256400000009
:101cd8002c0000005b25735d2042726f61646361b4
:101ce8007374696e672053434845443a2025730d41
:101cf8000a0000005b25735d20456e746572696e8d
:101d080067207374656164792d73746174652077d5
:101d1800696e646f7720666f7220256c756d730d20
:101d28000a0000005b25735d20706572696f646945
:101d3800632043485f41440d0a0000005b25735d42
:101d48002077616974696e6720666f7220736c6fa3
:101d58007420257520617420742b256c756d730da6
:101d68000a0000005b25735d204c6f7374204348a4
:101d78005f414420e286922061626f727420726f24
:101d8800756e640d0a00000025732c2564000000a0
:101d98005b25735d2053656e64696e67204441540a
:101da8004120736c6f74202325753a2025640d0a31
:101db800000000005b25735d20656e746572536cce
:101dc80065657028290a000041545333393d330da5
:101dd800000000005b25735d20524f554e445f4361
:101de8004f4d504c45544520e286922062726f61f7
:101df8006463617374696e670d0a0000656e640040
:101e08005b25735d20526f756e6420646f6e652c60
:101e1800207472616e736974696f6e696e6720747d
:101e28006f2049444c450d0a000000004665746364
:101e3800686564204e4f44455f4944203d20257322
:041e48000d0a00007f
:020000040000fa
:101e4c002de9f04f099f154604468e461e46002b81
:101e5c0040f0cc808a42b2fa82fc4cd9bcf1000f23
:101e6c000bd0ccf1200801fa0cfe20fa08f802fa8b
:101e7c000cf548ea0e0e00fa0cf44fea15491ffa5d
:101e8c0085f8befbf9fa210c09fb1ae30afb08fbe7
:101e9c0041ea03439b452ad9eb180af1ff3004d2df
:101eac009b4502d9aaf102002b44a3eb0b03a4b26d
:101ebc00b3fbf9f209fb123302fb08f844ea0344c2
:101ecc00a04516d92c1902f1ff3303d2a04501d934
:101edc00931e2c44a4eb080443ea004027b124fad7
:101eec000cf400233c607b603146bde8f08f50461b
:101efc00dbe71346eee702b9ffdebcf1000f2ed193
:101f0c008b1a01264fea154eaab2b3fbfef8210c30
:101f1c000efb183308fb02f941ea0343994561d9da
:101f2c00eb1808f1ff3004d2994502d9a8f1020050
:101f3c002b44a3eb0903a4b2b3fbfef10efb11334c
:101f4c004a4344ea0344a2424ed92c1901f1ff330f
:101f5c0003d2a24201d98b1e2c44a41abce7ccf1ab
:101f6c00200e02fa0cf521fa0ef901fa0cf320fa04
:101f7c000efe4eea03034fea154800fa0cf4b9fbc7
:101f8c00f8f11ffa85fe08fb1192180c01fb0ef6f6
:101f9c0040ea0242964221d9aa1801f1ff3003d23d
:101fac00964201d9881e2a44921b9bb2b2fbf8f9c7
:101fbc0008fb192209fb0efe43ea02439e450fd98a
:101fcc00eb1809f1ff3604d29e4502d9a9f102069d
:101fdc002b44a3eb0e0346ea004693e70846e3e7df
:101fec004e46f6e74046a4e70b46b6e78b4206d9c9
:101ffc00002f7ed00026c7e90001304674e7b3fa03
:10200c0083fcbcf1000f0fd18b4201d3824209d863
:10201c00841a61eb030e0120002f6dd0c7e9004e2e
:10202c00002661e76046f7e7ccf1200e03fa0cf3cb
:10203c0022fa0ef521fa0ef41d4301fa0cf320fae4
:10204c000ef10b434fea154a00fa0cf6b4fbfaf901
:10205c001ffa85f80afb19401c0c09fb08f144ea2d
:10206c000044a14202fa0cf23fd92c1909f1ff30bd
:10207c0004d2a14202d9a9f102002c44641a9bb2e9
:10208c00b4fbfaf90afb194409fb08f843ea0441ca
:10209c0088452cd9691809f1ff3304d2884502d937
:1020ac00a9f10203294443ea0040a1eb0801a0fb7b
:1020bc0002894945c2464c4602d306d1464504d254
:1020cc00b8eb020a69eb05040138afb1b6eb0a03b1
:1020dc0061eb040606fa0efe23fa0cf34eea030338
:1020ec0026fa0cf6c7e900369ae74846c6e74b468f
:0c20fc00d9e73e463846f7e63e46f5e6da
:020000040000fa
:10210800f0b59bb002f0c2fe08b11bb0f0bd0121d2
:102118000df1670002f0b2fe0028f6d09df8673096
:102128003e2b7bd0884a1278002aeed0874a127854
:102138004e2a04d8501c8549087085498b543c2b7d
:10214800e3d1834d814b1b780021e9540d910e9109
:102158000f91109104910591adf8181007ac0791f3
:102168000891adf8241011ae2022304602f0e0fdaf
:102178000196009404ab0daa7649681c02f01efd76
:10218800042847d1744907a802f091fd28b1734982
:1021980007a802f08cfd00283cd111ab009304abda
:1021a8000daa6d496e4802f06ffc02f089fb6d497b
:1021b8000da802f07cfd002839d06b490da802f06b
:1021c80076fd18b9694b1b78012b4cd068490da8ce
:1021d80002f06dfd18b9654b1b78032b5dd065497e
:1021e8000da802f064fd054618b9604b1b78012b59
:1021f8007cd061490da802f05afd20b95b4b1b78d1
:10220800032b00f092805d490da802f050fd0028d4
:1022180000f091804c4b00221a7076e701234a4a5d
:1022280013704a4a13704a4b3e221a706de702f047
:102238000dfe534b18604d4b1b78022bead1514cc5
:1022480004a9204602f008fe434d224629464e487e
:1022580002f01afc2a462146434801f099fa434bfa
:1022680003221a70d6e7494b1c78092cd2d804eb04
:102278000413474d1d4410220deb0201284602f0bd
:10228800f1fd00232b74631cdbb2404a137004aacf
:102298003149404802f0f8fbbce711aa2e493e48f4
:1022a80002f0f2fb11ac3d4f2b4e3d4d06e02c21c8
:1022b800204602f047fd90b1441c10d003ab0aaa97
:1022c8003946204602f07afc0228f0d131460aa8a5
:1022d80002f0edfc0028ead1039b2b70e7e7304bb6
:1022e8001a781d492f4802f0cffb93e711ab04aad7
:1022f80019492d4802f0c8fb244b1b78002b89d0c4
:10230800234c1d4f214e04e00135113433789d4292
:1023180080da04a9204602f0cafc0028f4d011aae9
:102328002146384601f034faeee711aa0a491f4857
:1023380002f0aafb6ee708491d4802f0a5fb0b4b0b
:1023480000221a7066e700bfb2040020b105002021
:10235800b4040020442a0000a0050020702a0000d0
:10236800742a0000902a0000b02a0000b30500205b
:10237800e02a0000202b0000502b0000702b0000ea
:10238800e4050020b4050020982a0000b3040020ca
:1023980008040020b82a0000e82a0000002b0000ea
:1023a800b20500200c2b0000282b0000542b000045
:0423b800802b000076
:020000040000fa
:1023bc0030b591ea030f00f18280841a71eb030ca3
:1023cc0005d2121953eb0c03001b71eb0c0140f2fc
:1023dc00000ccff6e07c1cea430f52d0bceb410f53
:1023ec005fd90c0da4eb135e5ff0010c6cf31f5165
:1023fc006cf31f53def1200c2ad303fa0cf54019b1
:10240c0041f1000122fa0ef5401923fa0ef569414b
:10241c0012fa0cf2cd0208d349085fea30005feae9
:10242c00320228bf42f001020134013c5fea500c39
:10243c0072f1004250f1000051eb04514ff40013c3
:10244c0013eb410f38bf30bd6ff31301002030bdcb
:10245c00bef1200ebef1200f1ed223fa0ef540194c
:10246c0041f10001cef1200c124218bf012203faf7
:10247c000cf52a43cee711ea5c0f04bf00200021c3
:10248c0030bd1cea410f04bf01f00041002030bdfb
:10249c0001f00041002030bd21f4801101eb04510a
:1024ac0030bd004218bf41f00101bceb410f08bf29
:1024bc0030bd4ff0fe4141f47801002030bd83f077
:1024cc000043841a71eb030e07d28ef0004e001bf2
:1024dc0071eb0e01121953eb0e0340f2000ccff608
:1024ec00e07c1cea430fc6d0bceb410f72d90c0d3b
:1024fc00a4eb135ec90241ea5051c00241f0004105
:10250c00db0243ea5253d20243f00043def1200ccb
:10251c0041d312fa0cf522fa0ef203fa0cf542ea48
:10252c00050218bf42f0010223fa0ef3801a9941fa
:10253c00e30ac4f30a0411f0404f03d418d0013c51
:10254c0040004941013c23d44205c00a40ea4150b5
:10255c00c90a51eac3715fea500c72f1004250f1a2
:10256c00000051eb045130bd01002fd00020203c65
:10257c000029f9d0b1fa81fcdcf1200e11fa0cf132
:10258c0030fa0ef510fa0cf02943a4eb0c04d9e741
:10259c000020d90730bdaef1200ebef1200f0dd2b8
:1025ac00cef1200c03fa0cf533fa0ef32a4318bfc4
:1025bc0043f00103c01a61f10001b9e721f00041b9
:1025cc00c00a40ea4150c90a01eb045130bd002059
:1025dc00002130bd004218bf41f00101bceb410f9e
:0e25ec007ff467afbceb430f3ff463af30bd2d
:020000040000fa
:0225fa00704728
:020000040000fa
:1025fc00840500201c000000000000005405002091
:10260c003000000000000000dc0500200400000089
:10261c0000000000a00500201100000000000000d8
:10262c00b40500201100000000000000b2040020de
:10263c000100000000000000e00500200800000080
:10264c0000000000b30400200100000000000000a6
:10265c0008040020aa00000000000000b4040020c0
:10266c005000000000000000b10500200200000036
:10267c0000000000e805002004000000000000003d
:10268c00b30500200100000000000000ec05002054
:10269c0008000000000000000405002050000000ad
:1026ac0000000000f4050020040000000000000001
:1026bc00040600206c000000010000001006002041
:1026cc000c06002010060020000000002500000071
:1026dc0008000020000400000000000000000000c2
:1026ec0000000000000000000000000000000000de
:1026fc000000000000000000e14e0000000000009f
:10270c000000000000000000000000001d3c000064
:10271c0000000000000000000000000000000000ad
:10272c000000000000000000000000200804000071
:10273c0000000000d0060020200000000100000076
:10274c000100000003000000000000000000000079
:10275c00000000000000000000000000d405002074
:10276c00d40500200800000000000000f80500203f
:10277c00080000000000000070060020600000004f
:10278c000100000001000000030000000000000038
:10279c00000000000000000000000000000000002d
:1027ac00f53d0000000000000000000000000000eb
:1027bc00cd4e00000f4d0000000000000000000096
:1027cc0000000000000000000000000000000000fd
:1027dc0000000000000000000000000000000000ed
:1027ec0000000000f00600200400000001000000c2
:1027fc0001000000000600200400000000000000a2
:10280c00c80500200c0000000000000000000000c3
:10281c0000000000666666666666666666666666e4
:020000040000fa
:10282c00f0b581ea030e0ef0004e40f20007cff631
:10283c00e07717ea41051ebf95ea070f17ea430434
:10284c0094ea070f00f0c5806d0da5eb545707f502
:10285c0080674ff0004646eac12444ea5054c00257
:10286c0046eac32343ea5253d202801a9c4104d253
:10287c000018644180185c41013f5b084fea32024a
:10288c000025002140f001004ff0070604e0801afb
:10289c009c4136d340416441801a9c4136d340411f
:1028ac006441801a9c4136d340416441801a9c415a
:1028bc0036d340416441801a9c4136d34041644137
:1028cc00013e17d0801a9c4136d340416441801a96
:1028dc009c4136d340416441801a9c4136d34041df
:1028ec006441090201eb156190ea052520f0ff0017
:1028fc004540cce7801a9c4156d335e080185c41aa
:10290c00c8d20018644180185c41c8d200186441d8
:10291c0080185c41c8d20018644180185c41c8d250
:10292c000018644180185c41c8d200186441013e13
:10293c0017d080185c41c8d20018644180185c41e3
:10294c00c8d20018644180185c41c8d20018644198
:10295c00090201eb156190ea052520f0ff004540c6
:10296c00cce780185c411fd3420918bf44f0010426
:10297c00490101ebd56100f01f0000eb451021f47b
:10298c00801141ea0e01013041f10001244208bfdf
:10299c0020f00100b7f5006f3eda013f49dd01eb95
:1029ac000751bde8f0407047490101ebd56100f0db
:1029bc001f0000eb451021f4801141ea0e01b7f520
:1029cc00006f29da013f34dd01eb0751bde8f0401f
:1029dc007047004218bf41f00101124218bf43f08a
:1029ec000103b7eb410f2cbfb7eb430f1ce0b7eb68
:1029fc00410f04bfb7eb430f16e017ea410f04bfba
:102a0c0017ea430f10e017ea410f12d017ea430ff1
:102a1c0002d0b7eb430f0cd04ef0fe4141f47001e5
:102a2c000020bde8f04070474ff0fe4141f47801c2
:062a3c00f6e77146f4e725
:020000040000fa
:022a4200fee7ad
:020000040000fa
:102a44002531355b5e2c5d2c5352433d25395b5e4d
:102a54002c5d2c4453543d25395b5e2c5d2c444144
:102a640054413d2533315b5e3c5d0000414c4c00dc
:102a74005b25735d20525820257320e28690202523
:102a840073203a2025730d0a0000000043485f417b
:102a9400440000005b25735d204a6f696e696e67b0
:102aa4002043482025730d0a000000004a4f494e78
:102ab400000000005b25735d204348207265636f4e
:102ac40072646564204a4f494e2066726f6d2025fa
:102ad400732028232575290d0a0000005343484517
:102ae400440000005b25735d20476f742053434806
:102af40045443a2025730d0a0000000025395b5e29
:102b04003a5d3a25640000005b25735d206d7953be
:102b14006c6f743d25750d0a00000000444154415a
:102b2400000000005b25735d2043482072656365e7
:102b34006976656420444154412066726f6d202596
:102b44007320e286922025730d0a00004657440044
:102b54005b25735d204d656d62657220676f74201f
:102b64004657443a2025730d0a000000524f554e33
:102b7400445f434f4d504c45544500005b25735d05
:102b840020526563656976656420524f554e445ff3
:0c2b9400434f4d504c4554450d0a0000c5
:020000040000fa
:102ba0002de9f04f85b09a461369d2f80890d2f813
:102bb0000c8001910446009301f0a8fcdaf8002093
:102bc0001044caf80000b9f1000f02d1009b03f1d4
:102bd000ff390a274ff0000b5e464e453fda009b57
:102be000591eb1423bdde06be16c884211d2411cc1
:102bf000e1630578c6b92b2d01d02d2d14d188f8ad
:102c00000050daf800200132caf800204ff0010b22
:102c1000e2e7204601f01cf905460130ead1f6b999
:102c2000284605b0bde8f08f5e4508d10a2f06f1b1
:102c3000010b28d1302d0cbf08274ff0000ba5f158
:102c40003001092946d9102f04d1284601f090ff00
:102c5000002844d1e36c13b1e36b013be363002331
:102c60000a2f08f806303a4603a9404640d102f040
:102c70008bf8019bc3e90001039b43450cbf6ff038
:102c800001050125cce7082f21d145f02001782945
:102c90001dd1e06be16c884215d2411ce1630078e4
:102ca000e16c11b1e16b0139e16301f061ff0028d2
:102cb000d0d008f80650daf8001001315e46caf8a4
:102cc0000010102789e7204601f0c2f8e8e74ff02e
:102cd000000bb4e7082f02d1382da8bf0a2708f847
:102ce0000650daf8001001310136caf8001074e716
:062cf00001f0ecffbde75e
:020000040000fa
:102cf600f0b540f2ff7681ea030c16ea115e1ebfbc
:102d0600b64516ea1355b54252d021ea465141f46a
:102d16008011a1fb024723ea465343f48013ae44d5
:102d2600a0fb03650cf0004c36197d41a1fb03475f
:102d360047f10003a0fb0217f619654153f10003a2
:102d4600094218bf46f0010640f2fe74b3f5007f53
:102d560013d2aef5806ea64523d24cea0331280382
:102d660041ea155140ea16503203450872f1004215
:102d760050f1000051eb0e51f0bdaef2ff3ea645fc
:102d86000fd24ceac321e80241ea555140ea5650b7
:102d9600f202450872f1004250f1000051eb0e516b
:102da600f0bd1eea0e0f2dd50cf000410020f0bd3f
:102db60016ea115f04bf01f000410020004218bf6f
:102dc60041f0010116ea135f04bf03f0004300223d
:102dd600124218bf43f0010306ea1354b44218bf67
:102de600b64503d00cf000410020f0bd21f00041b3
:102df60023f00043b1eb065f0cd8b3eb065f09d8ae
:102e060041b13bb10cf0004141f0fe4141f470018b
:102e16000020f0bd40f20001c7f6f8710020f0bdb9
:020000040000fa
:102e26002de9f04f0e4649683568d6f80890f768e0
:102e36008bb0cde903230029acbf25f002050121a3
:102e460015f010030593039b8346d3e900232fd087
:102e560052ea03002cd0a9f10208346915f00800e3
:102e660004f1ff3408904ff00000385518bf08f100
:102e7600ff388a46012c1ddc059b002b54d1089b8c
:102e860013b1013c20233b5532690095013a4b466c
:102e9600121b3919584600f0bafbdbf80430db0583
:102ea60003d573689842b8bf18460bb0bde8f08fdb
:102eb600c846d2e752ea030009d1baf1000f06dc90
:102ec600a8eb010050440028d6dda807d4d502f0af
:102ed6000f000928d4bf00f1300e00f1570e0498f8
:102ee600a0f1410cbcf1190f04f1ff3410d84ef0db
:102ef600200cacf1610cbcf1190f09d87046099190
:102f0600cde9062301f08fffdde906230999864600
:102f1600100940ea03704fea131c07f804e00af1af
:102f2600ff3a02466346a5e7039bd3e9000150ea50
:102f36000103a4d03a19049b02f8013c023c302359
:042f46003b559ce774
:020000040000fa
:102f4a00ffffffffffffffffffffffffffffffff87
:102f5a00ffffffffffffffffffffffffffffffff77
:102f6a00ffffffffffffffffffffffffffffffff67
:102f7a00ff00010203040506070809ffffffffff20
:102f8a00ffff0a0b0c0d0e0f101112131415161752
:102f9a0018191a1b1c1d1e1f20212223ffffffffc9
:102faa00ffff0a0b0c0d0e0f101112131415161732
:102fba0018191a1b1c1d1e1f20212223ffffffffa9
:102fca00ffffffffffffffffffffffffffffffff07
:102fda00fffffffffffffffffffffffffffffffff7
:102fea00ffffffffffffffffffffffffffffffffe7
:102ffa00ffffffffffffffffffffffffffffffffd7
:10300a00ffffffffffffffffffffffffffffffffc6
:10301a00ffffffffffffffffffffffffffffffffb6
:10302a00ffffffffffffffffffffffffffffffffa6
:10303a00ffffffffffffffffffffffffffffffff96
:0a304a00ff00010204070306050061
:020000040000fa
:10305400334b00221a7403f50063324a9a621a460b
:10306400536813f0100ffbd12f4b4222c3f8842076
:103074001a4600bfd2f8843013f0400ffad02b4b1d
:1030840000229a6377225a631a46d36b13f0040f13
:10309400fbd1264b022283f830201a46d36b13f05f
:1030a400020ffbd1214a136c03f00303032bfad163
:1030b4001f4b01225a711a46d37813f0010ffbd02b
:1030c400194b1c4a1a621a46536813f0040ffbd1b9
:1030d400154b194a5a621a46536813f0080ffbd16c
:1030e400114b4122c3f808211a4600bfd2f8083117
:1030f40013f0400ffad00c4b4122c3f80c211a46ae
:10310400d2f80c3113f0400ffad0094b6ff07f4224
:103114001a6140f2ff725a6103221a62704700bfbb
:103124000014004006013000001c00400010004064
:0c31340000080040060101000701020035
:020000040000fa
:1031400053ec102bc3f30a512de9f04140f2fd700e
:103150004e1e86421d4645d8a1f2ff30002835dbc1
:10316000332831dc284bc0f120084ff0ff3c03fa34
:1031700008f2a1f21f412cfa00fc10ee104a4ceab2
:10318000020c23fa01f24cea020c23fa00fe04ead4
:103190000c0605ea0e0724ea0c0256ea070425eaa3
:1031a0000e030fd0002a73f100040bda4ff48015e0
:1031b00005fa08f425fa01f10c43121925fa00f07a
:1031c00040eb030343ec102bbde8f081002a73f1c0
:1031d000000303db9fed080bbde8f0819fed080bba
:1031e000bde8f0810029efd10a4603f0004343ec2b
:1031f000102be9e7aff300800000000000000000a2
:0c320000000000000000f0bfffff0f0006
:020000040000fa
:10320c00882910b536d012dc812943d003dc802903
:10321c0040d0002010bd82290ed08429f9d1196824
:10322c0002b30a1d1a60b1f90020d3171ee0a029c1
:10323c002bd00bdc9029ecd11968073121f0070158
:10324c0001f108021a60d1e900230fe0c02901d076
:10325c00f029ded11a68111d196013680360002370
:10326c00436005e00a1d1a600a880023c0e90023a8
:10327c000120cfe7196822b10a1d1a6091f90020cc
:10328c00d3e70a1d1a600a78efe71a68111d196056
:10329c001268cae719681ab10a1d1a600a68c4e7ed
:0c32ac000c1d1c600b68c0e90032e1e75b
:020000040000fa
:1032b8002de9f041d2e900230c4686b007465feac3
:1032c800d37820684968a5680590e66841d05242dd
:1032d80063eb4303002908db20f002000590b8f1f6
:1032e800000f02d1059948072ad5691e05a8029042
:1032f8000a20cde90010204600f040fbb8f1000f8d
:1033080002d1059b59071fd5b8f1000f00f1ff3016
:1033180014bf2d232b2333542269059b0093013ab4
:103328002b46121a3118384600f070f97b68db0515
:1033380003d563689842b8bf184606b0bde8f08167
:103348000807d2d42946d1e71a07e5d50138202342
:08335800e1e70029c0dac5e736
:020000040000fa
:1033600000283bd070b406461f4b1b7d002b37d185
:103370001d4b1860596001221a755d684ff0864335
:103380001b7e13f0010f1bd0e5b10078e0b134468d
:1033900000224ff086414b6803f00703012b12bf58
:1033a000886236f812308b6201320b7e13f0010f07
:1033b0000dd095420ad014f8010f0028ebd106e099
:1033c000002204e02a4602e0002200e02a46064be2
:1033d0009a6001204ff08643987502e00020704704
:0c33e000002070bc704700bf54050020a6
:020000040000fa
:1033ec002de9f843089e05460c461f46904622b12f
:1033fc0001f086f83b6818443860d4f80890002433
:10340c00b9f1000f01d04c451cdaeb6bea6c93421e
:10341c0012d25a1cea631878b8f1000f18d0202881
:10342c0003d0a0f10903042b12d8eb6c13b1eb6b96
:10343c00013beb63b6b906e0284600f003fd431ce4
:10344c00ead11cb15eb9201c18bf0120bde8f8837d
:10345c0006b130553b68013301343b60d0e7b8f11d
:0a346c00000ff0d000233355ede708
:020000040000fa
:103476002de9f84316460546d1f80880d1e90379c7
:1034860001f041f8336818443060b8f1000f01d1fb
:1034960009f1ff380024444526da09f1ff33a34237
:1034a60022ddeb6bea6c93420dd25a1cea63187864
:1034b6008cb92b2801d02d280dd1387033680133f3
:1034c60033600124e7e7284600f0bffc431cefd138
:1034d60054b9bde8f883a0f13003092b07d9eb6c8a
:1034e60013b1eb6b013beb6300203855f1e7385520
:0a34f6003368013301343360cde781
:020000040000fa
:103500002de9ff41836946690093f61acde901610f
:1035100004461746039216444ff002086d46424691
:103520002946206801f051fab04209d1d4e90232ab
:10353000c4e905331a44a262384604b0bde8f081fc
:1035400000280dda6268002342f01002b8f1020f81
:10355000a362c4e90533626015d06b68ff1aebe71c
:103560006b68984288bf0835a6eb000688bfc01a72
:103570002b6803442b606b68a3eb000088bf08f145
:0a358000ff386860cbe71f46d6e76e
:020000040000fa
:02358a00fee75a
:020000040000fa
:10358c0008b5194b9847194b9847eff3108172b651
:10359c00174ad2f8883043f47003c2f88830bff36e
:1035ac004f8fbff36f8f01b962b6124a936823f045
:1035bc00010393601346da6812f0010ffbd10d4b37
:1035cc0024225a6001229a6001f09cf80a4b23f0e5
:1035dc007f03074a9360094b9847094b9847094b5f
:1035ec00984701f00ffcfee7c7480000c7480000f1
:1035fc0000ed00e00060004100000000993d00007b
:08360c00c7480000c748000098
:020000040000fa
:103614002de9ff471d460c9b13f0010906468a4617
:10362400144601d195420bd822465146304600f04b
:10363400a7ffa54204d82546284604b0bde8f08774
:103644002f1b102f3a464ff0200128bf1022684646
:10365400b84601f06ffb00bfb8f10f0f11d83b095a
:103664006ff00f0202fb03726946304600f088ffd8
:10367400b9f1000fe0d122465146304600f080fff8
:10368400dae710226946304600f07affa8f1100804
:04369400e2e700bfaa
:020000040000fa
:10369800f0b51f4c2568a446002d36d000222946d7
:1036a80016461346d1f800e00f6986450ad132b1b3
:1036b800176101f110031846f0bd3946f2e7ccf85e
:1036c8000070f6e705d9ebb11c68a6453cbf164665
:1036d8000b460a46002ff0d1002becd019461f6983
:1036e80051f8102b121a102a05d918600844103afc
:1036f8000761026007469d420cbfccf80070376135
:103708000b46d8e716460b46e3e72b46d3e700bf40
:043718000006002087
:020000040000fa
:10371c00002837d0f8b5064615460f4601f026f8b6
:10372c00781e2ad00022184c237e13f0040f12d1dd
:10373c00002df9d0144b5b6803f00703012b4ff0fd
:10374c00000314bfb35426f812300023b354d01a1c
:10375c0018bf0120f8bd638b13f0070f0cd1636801
:10376c0003f00703012ba36a14bfb35426f81230dd
:10377c0001328242d8d100e01046874214bf0020ab
:0c378c000120e7e7002070470004004324
:020000040000fa
:103798002de9f0419eb006460f4614463c2304939b
:1037a80003920291154d019500903e23144a502131
:1037b8000aa801f010fa804600943b463246294692
:1037c800104801f061f95ffa88f30f4a102106a842
:1037d80001f001fa0d2106a801f054fb01f05afb93
:1037e8000028fbd141460aa801f04cfb01f052fb2e
:1037f8000028fbd11eb0bde8f08100bfa005002065
:0c380800444100006441000080410000c9
:020000040000fa
:10381400882930b52cd012dc812930d003dc8029f2
:103824002dd0002030bd82290ed08429f9d1196809
:1038340000680a1d1a600b6818800120f2e7a029ad
:103844000fd00adc9029ecd119680a1dd0e9004593
:103854001a600b68c3e90045efe7c02901d0f029dd
:10386400dfd11a680168101d186013681960e4e755
:10387400196800680a1d1a600b681870dde719687a
:0c38840000680a1d1a600b681860d6e787
:020000040000fa
:10389000842910b523d00cdc812903d0822913d0d0
:1038a00080290bd119680c1d1c600b6803601a601d
:1038b00013e0902921d003dc882917d0002010bd07
:1038c000a029efd0c029ece719680c1d1c600b681b
:1038d0000360d1171046c3e900010120efe7196822
:1038e0000c1d1c600b6803601a80f6e719680c1d3c
:1038f0001c600b6803601a70efe719680c1d1c60f0
:0c39000009680160d317c1e90023e6e765
:020000040000fa
:10390c001c4b1b7d002b34d010b51a4a93685168a0
:10391c004ff08642127e12f0010f16d0994214d944
:10392c004ff0864113484a6802f00702012a0268e8
:10393c0014bfd25c32f813208a62013344680a7ec9
:10394c0012f0010f01d09c42edd80a4a93605268e4
:10395c009a420dd8074b00221a755a604ff08642d6
:10396c0001211175db681bb1024b1869db689847a4
:08397c0010bd70475405002046
:020000040000fa
:103984002de9f84f04460c9f6668d4f80cb02469fe
:1039940010463a68013c002502f0020a0b9a0bf823
:1039a4000450002e1946b8bf0126012390464fea61
:1039b400e279002c03dcd3b12046bde8f88f50ea4d
:1039c400010209d1721b002a06dc0a9a521b002a42
:1039d400f1ddbaf1000feed042464b4600f02aff6b
:1039e400013c134630320bf804200135e1e73b6813
:0839f40023f010033b60dfe744
:020000040000fa
:1039fc00f8b5846a05460f46164654b1ab6a6a6937
:103a0c009b1ab3420bd2324639462846fff772fd59
:103a1c00f8bd01f01bf90028f0d02046f8e7002e85
:103a2c00f1d095f93430002b1bdbdbb23446621e2f
:103a3c00b95c994212d1224639462846fff75afd05
:103a4c00a042e5d32744341b22463946686901f06d
:103a5c007bf86b691c446c613046d9e71446002a2c
:063a6c00e5d13446f0e74d
:020000040000fa
:103a7200f0b50c4649682368a768e56887b0002955
:103a82000593a4bf23f00203059305ab0293082319
:103a9200cde900730646d2e900232046fff771ff05
:103aa200059bd90642bf00f1ff3030232b54059b02
:103ab2001a0742bf00f1ff3020232b542269059bd5
:103ac2000093013a3b46121a29183046fff7a1fd2e
:103ad2007368db0503d563689842b8bf184607b020
:023ae200f0bd35
:020000040000fa
:103ae400194bda6822f4e0621204120c42f0bf624d
:103af40042f40032da60bff35f8f62b6134ae0210a
:103b040082f83e134ff08040506082f83f134ff02c
:103b14000040506082f840130120906082f8411305
:103b2400022191605a6a42f480225a625a6942f030
:103b340010025a615a6a42f400325a625a6a42f4d2
:103b440080325a62704700bf00ed00e000e100e0ff
:020000040000fa
:103b540008b5184b93f82c30d3b1164bda691b6aad
:103b6400934215d2134b986a4ff08642916a1b6aae
:103b7400526802f00702012a0e4a926914bfd15416
:103b840022f8131001330b4a1362d2699a4200d00f
:103b940008bd084b002283f82c20da614ff08642de
:103ba400842111755b6a002bf2d0024b5b6a984743
:083bb400eee700bf54050020fc
:020000040000fa
:103bbc00c9b2f8b50446f1b103469a0718461ed1ae
:103bcc004ff001354d431e4656f8044b84ea050769
:103bdc00a4f10132a7f1013022ea040220ea070025
:103bec00024312f0803f11d0184613f8012b2ab172
:103bfc008a42f9d102e001f005f82044f8bd13f82f
:103c0c00012b002afad08a42d7d1f7e73346dae7fc
:020000040000fa
:103c1c007fb5c36800911546002b18bf013a01927d
:103c2c0082680446cde902230e46022269460068ea
:103c3c0000f09bfe002808dc00f0180383f008025b
:103c4c0063681343636005460fe0019a8242fad21f
:103c5c00a368e363801ae268184420642ab15a1cf2
:103c6c00e2632e441b7806f8013c284604b070bd74
:020000040000fa
:103c7c00f0b59bb004460d46164600214c2207a811
:103c8c001f4601f053f84ff0ff33029303f2031376
:103c9c00039304b901accde9044555b16a1e002d5e
:103cac00069208da094b4f221a604ff0ff301bb016
:103cbc00f0bd2a46f3e71cbf002323703a46314679
:103ccc0002a8cde9074400f05bfff0e7fc050020fb
:020000040000fa
:103cdc0037b5154d2b68044673b100f007ff019002
:103cec0001a801f003f80f30019920f00f0000f04b
:103cfc00c5ff60b100232b60002c08bf01240f34da
:103d0c0034f00f0405d1094b0c221a60204603b085
:103d1c0030bd042c38bf04242046fff7b7fc002824
:103d2c00f5d040f8044cf2e7f0060020fc0500202a
:020000040000fa
:103d3c0008b54ff086439b7d0bb34ff08642137e44
:103d4c00dbb2927d12f0800f1ad14ff08642137eb7
:103d5c00dbb2927d12f0010f04d013f0010f01d0f1
:103d6c00fff7cefd4ff08642137edbb2927d12f050
:103d7c00040f04d013f0040f01d0fff7e5fe08bdcb
:0c3d8c0013f0800fe1d000f033fcdee704
:020000040000fa
:103d98000e4a38b5002313600d4a0e4c13600e4ac4
:103da8000e4d13600e4a13600e4a13600e4a53629a
:103db80013610123936001f00ff800f088feac4214
:103dc80000d338bd54f8043b9847f8e7f8050020bd
:103dd800100500206c0200000c0500207002000095
:0c3de80004050020080500201405002040
:020000040000fa
:103df40038b50d46044608b9002038bd43689b0613
:103e040007d5d0e905239a4216d80023c4e905331f
:103e1400a362d4e90f13994204d20122c91a20687b
:103e240001f062f80023c4e90f33002de4d02068c8
:103e3400bde8384001f04bb80022c36a11469847e8
:0c3e44006369002be1d14ff0ff30d6e79e
:020000040000fa
:103e500038b5036d04463bb1426d934204dc002348
:103e6000e3644ff0ff3038bd204600f0d7fd002856
:103e7000f5db236dd4e90f12a3b1656d5b1b551af9
:103e8000ab420fdc013b0b44e36422b1636d521a79
:103e900001321a44626511f8013c834218bf01f8ef
:083ea000010ce0e71346efe717
:020000040000fa
:103ea8002de9ff41134dd1f80080af88adf80c70b3
:103eb80006462868029002aca8798df80e00002a00
:103ec80018bf1446d1e901571a461bb9204600f01d
:103ed8009bfe0246002d02dbaa4228bf2a46cdf8e7
:103ee80000803b4621463046fff790fb04b0bde812
:083ef800f08100bfc44e000080
:020000040000fa
:103f0000f0b50c4649682368a668e76887b00029c1
:103f10000593a4bf23f00203059305ab02930a2384
:103f2000cde900630546d2e900232046fff72afdcc
:103f30002269059b0093013a3346121a3918284624
:103f4000fff768fb6b68db0503d563689842b8bf71
:063f5000184607b0f0bda9
:020000040000fa
:023f5600fee784
:020000040000fa
:103f58004ff08643114a1a604ff6b1629a814ff4c6
:103f680040325a601a46d369002bfcd14ff0864282
:103f7800136843f002031360d369002bfcd1084b8c
:103f880000229a61da611a6283f82c205a621a6058
:103f98005a609a601a75da60da8570470401104031
:043fa800540500209c
:020000040000fa
:103fac0070b404468ab10b7804f8013b551e7bb102
:103fbc008618284406e011f8015f03f8015b021b28
:103fcc004db11c46a6422346f5d1204670bc704725
:103fdc0023462a460446002af7d01a44002100bf83
:103fec0003f8011b9a42fbd1002c08bf1446204653
:043ffc0070bc7047de
:020000040000fa
:1040000070b500239ab098420393a6bf00f1004315
:1040100003f1ff334ff0ff330d4611900490002160
:10402000044602a81646129300f00afedde91e239c
:104030003146cde9002302a80122fdf727fa35b168
:10404000dde911329b1a179a13441c442c601ab0f4
:0240500070bd41
:020000040000fa
:02405200fee787
:020000040000fa
:10405400114b012283f8cc2083f8cd2083f8d020a3
:1040640083f8d120222283f8b62083f8b8200422d2
:104074009a60802199601021c3f884109a61074bdb
:10408400013bfdd1044b80225a61044b013bfdd11d
:10409400014b80229a61704700800041a086010094
:020000040000fa
:1040a40008b50e4b4ff480429a609a610c4b022281
:1040b4005a700c4b4bf67f325a600b4ae02182f85f
:1040c400231000229a6007221a604ff47a7000f0dd
:1040d4001dfe064800f08cfc08bd00bf00800041b6
:1040e4000004004010e000e000ed00e0f84b0000a8
:020000040000fa
:1040f40013b5836a8df80710044673b16369a26a25
:10410400934212d3e36a01220df107012046984736
:10411400012806d19df8070005e000f09bfd00286a
:10412400ecd04ff0ff3002b010bd9df8070094f9b9
:0e41340034209042e6d05a1c62611870f3e706
:020000040000fa
:02414200fee796
:020000040000fa
:10414400256325732c5352433d25732c4453543d0e
:1041540025732c444154413d257325630000000020
:104164005b25735d20545820257320e28692202518
:1041740073203a2025730d0a0000000041542b528d
:0c41840044415441423a253032580d00ad
:020000040000fa
:10419000022a70b5044616461d461ad043689b068f
:1041a00017d441b9002d08bf4ff4806505f1080010
:1041b000fff794fd01466368012e43f0200363601e
:1041c000c4e9021514bfff230a2384f83430024bdc
:0c41d000e362002070bd00bffd3900005c
:020000040000fa
:1041dc0001f000428b1aa3f16051b1f5801f0adb8c
:1041ec00b1f17f6f09d242eac102c10071f1004105
:1041fc0042eb507070471046704701285b4113f535
:10420c00001f02d842f0ff407047c90041ea5070cd
:0c421c00104340f4800040f080407047e8
:020000040000fa
:1042280010b590f948305a1e134380f84830d0e949
:1042380005239a42044603d90022c36a11469847c7
:1042480060680023a362c4e90533830755bfd4e936
:10425800023240f010009b18606056bfc4e90f336b
:0a4268004ff0ff3040f3c00010bd1e
:020000040000fa
:10427200c1f30a5340f21e42d21a0edd202a0ad896
:10428200cb0243ea505040f00040d04090eae17047
:10429200b0ebe1707047002070474b00004218bf3e
:1042a20043f0010313f5001f88bf21f0004111f014
:0a42b200004058bf6ff00040704755
:020000040000fa
:1042bc00812910b50fd0832903d0802912d000207a
:1042cc0010bd1368191d1160d0e900011b68c3e90a
:1042dc0000010120f4e71368191d11601b68d0e977
:1042ec000001f4e713681c1dd0e9000114601c6880
:0842fc00fff76eff2060ece704
:020000040000fa
:1043040010b50278202a034600f10100f9d0a2f189
:1043140009010429f5d92b2a07d02d2a11d101210d
:104324000133013b00200a2403e00021f8e7604345
:10433400801a13f8012f303a092af8d901b94042fa
:0643440010bd0021ede7b1
:020000040000fa
:02434a00fee78c
:020000040000fa
:10434c00d0b110b40446c9b1084421460c4a6442a9
:10435c00137e13f0010ffbd0536803f00703012bfe
:10436c0014bf0b7834f81130936201318142efd1d4
:10437c0001205df8044b7047002070470120f8e7de
:04438c0000040043e6
:020000040000fa
:10439000eab10378c9b28b421ad0431c024493425b
:1043a000184603f1010312d010b404788c4207d0f0
:1043b0009342184603f1010305d004788c42f7d1eb
:1043c0005df8044b704700205df8044b70470020f7
:0443d000704700bf73
:020000040000fa
:1043d40010b5054c227832b9044b13b10448aff33d
:1043e40000800123237010bd84050020000000001c
:1043f4000000000008b5034b1bb103490348aff3a9
:10440400008008bd000000008805002000000000b6
:020000040000fa
:1044140008b500f0cbfc0c4b1b680021186800f0b9
:10442400d5fc0a4b1b680021186800f0cffcfff78d
:104434000ffefef70dfefef7def800f04df9fff774
:1044440089fdfff74dfb08bd08060020ec0600209f
:020000040000fa
:104454002de9f041846b02f58077064688461546bf
:1044640000213a462046fff791ff00b1071bbd42e9
:1044740028bf3d4621462a46404600f069fb6319a1
:0e4484003c44f3633464b4632846bde8f08121
:020000040000fa
:1044920010b44c68a40602460b4603d45df8044be4
:1044a20000f0c7b891f93410c0b2814203d0596903
:1044b2009c6aa14205d3114618465df8044bfff7ea
:0e44c20018be4c1c5c610a705df8044b70471c
:020000040000fa
:1044d000c0b138b505460c4a92f82c200ab100202c
:1044e00038bd0c4600f060f9074b9d61dc6100228d
:1044f0001a62012083f82c00da854ff0864384226b
:0c4500009a75ede700207047540500207c
:020000040000fa
:10450c0038b504460025e36be26c934210d25a1c7a
:10451c00e2631878202809d00938042806d9e36cfe
:10452c0013b1e36b013be363284638bd0135eae781
:0c453c002046fff787fc431cecd1f5e79c
:020000040000fa
:1045480030b50d4a002300bf12f8134024b902eb1e
:1045580043035b78184630bd01680d78a54209bf52
:1045680002eb430301335b78013114bfdbb2016016
:0c4578000a2be9d9eee700bfe24c00007e
:020000040000fa
:1045840038b5436813f4807f0446154611d0036997
:104594009a4228bf1d465db12a46406900f0d8fa08
:1045a400636922692b44551b0022636125611a70db
:0c45b40038bddb06fcd400f059fbf9e731
:020000040000fa
:1045c0004ff4001c1ceb410f98bf1ceb430f11d89c
:1045d00051ea030c50ea4c0c5cea020c0cd004d2f9
:1045e00082428b4180410130704790429941804125
:0c45f00001307047002070470120704728
:020000040000fa
:1045fc004ff086435b8b13f0070300d1704710b567
:10460c00084ce38500f0caf84ff0864384221a75f3
:10461c00002384f82c30636a13b1a06a636a98474c
:08462c0010bd00bf5405002081
:020000040000fa
:1046340007b54a68c0b2d2050b468df8070006d507
:104644004a69511c5961107003b05df804fb0122e2
:104654000df10701184600f009fb10b19df80700a1
:08466400f2e74ff0ff30efe731
:020000040000fa
:10466c004ff4001c1ceb410f98bf1ceb430f11d8ef
:10467c0051ea030c50ea4c0c5cea020c0ad004d24e
:10468c0082428b4180414042704790429941804127
:08469c00404270470020704706
:020000040000fa
:1046a4004ff4001c1ceb410f98bf1ceb430f11d8b7
:1046b40051ea030c50ea4c0c5cea020c0ad004d216
:1046c4009042994180414042704782428b418041ef
:0846d4004042704700207047ce
:020000040000fa
:1046dc000a4b0b4a1a604ff622029a814ff4403271
:1046ec005a601a46d369002bfcd1044a136843f074
:1046fc0002031360d369002bfcd170470004004304
:04470c000401104054
:020000040000fa
:1047100070b50a480a4d4ff6ff76016811b9436833
:1047200003b970bd83684268334000f10c0455f84a
:1047300023302046984704eb8000eee7fc2500007c
:04474000244d000004
:020000040000fa
:104744004ff4001c1ceb410f98bf1ceb430f0cd81b
:1047540050ea410c08bf52ea430c08d0904208bf0b
:1047640099420cbf012000207047002070470120af
:0247740070478c
:020000040000fa
:02477600fee75c
:020000040000fa
:104778000a4b5b8b13f0070f0ed0084b80221a767a
:1047880007225a831b7e13f0040f05d0034b9a6a45
:104798001a7e12f0040ffad1704700bf00040043dc
:020000040000fa
:1047a8004ff086435b8b13f0070f10d04ff0864312
:1047b80080221a7607225a831b7e13f0040f06d034
:1047c8004ff086439a6a1a7e12f0040ffad17047a6
:020000040000fa
:1047d80037b5d4680d4611461a46fef748fe431c05
:1047e8000cd00a2201a9204600f0cafa019ba34274
:1047f800c5e900010cbf6ff00100012003b030bd16
:020000040000fa
:1048080070b598b004460d461646002160226846e9
:1048180000f08efa054b02943246294668460e94fb
:10482800119300f0bdf918b070bd00bfe54e00004f
:020000040000fa
:1048380053b94ab9002908bf00281cbf4ff0ff31ff
:104848004ff0ff3000f04cbbadf1080c6de904ce21
:10485800fdf7f8faddf804e0dde9022304b070475b
:020000040000fa
:10486800064b1a680ab9064a1a60064a116809b955
:10487800054911601a68054b1a607047d005002079
:10488800f8060020cc050020f8080020c805002004
:020000040000fa
:1048980010b50b681b78202b0c4602d0093b042b63
:1048a8000bd8fff72ffe23685a1c22605b78202b59
:0e48b800f9d0093b042bf6d910bd0020fce717
:020000040000fa
:0248c600704739
:020000040000fa
:1048c80008b50749074800f0dff80821064800f056
:1048d800d9fa00bf00f0defa0028fbd108bd00bffe
:0c48e800a0050020d84a0000ec4a0000a7
:020000040000fa
:1048f40000b553ec112b83b051ec100b8ded002b54
:10490400fef7f7f99ded002b53ec122bfdf754fd48
:0c49140041ec100b03b05df804fb00bf89
:020000040000fa
:1049200010b5084c23680bb9fff79eff06492268b3
:1049300009681044814234bf4ff0ff3220601046b6
:0c49400010bd00bfc8050020cc05002001
:020000040000fa
:10494c0070b5002902fb01f614460d4618bf14463b
:10495c0001463246184608bf002400f083f986420f
:0a496c0018bfb0fbf5f4204670bd43
:020000040000fa
:104976002de9f0410024804617460e462546bd42e5
:1049860002db2046bde8f081726856f8081b4046f7
:0a49960000f069f801350444f1e770
:020000040000fa
:1049a000802910db812901dd83290cd113680733ad
:1049b00023f0070303f108011160d3e90023c0e9e4
:0a49c000002301207047002070471b
:020000040000fa
:1049ca002de9f0410024804617460e462546bd4291
:1049da0002db2046bde8f081726856f8081b4046a3
:0a49ea0000f0a4f801350444f1e7e1
:020000040000fa
:1049f40010b5084c2368196800f05af8002807db42
:104a040023680a20196800f04ffac00f404210bd15
:084a14000120fbe7ec06002085
:020000040000fa
:104a1c0013b50446fff702fc18b14ff0ff3002b09b
:104a2c0010bd636c01220df1070120469847012847
:084a3c00f3d19df80700f2e739
:020000040000fa
:104a440090f948305a1e1343426880f8483012f0f7
:104a540004031bbf42f010024260c0e90f334ff061
:084a6400ff3008bf184670473f
:020000040000fa
:104a6c0068b972b170b50c4600260125324629464c
:104a7c002046fef74dfe0028f8d0012070bd002026
:044a8c0070477047b8
:020000040000fa
:104a90000fb407b5064b04aa1b6852f8041b18682c
:104aa000019200f073f803b05df804eb04b07047b6
:044ab000ec060020f0
:020000040000fa
:104ab40070b50e46054600f0a9f833460446024692
:104ac40001212846fff740ff001b18bf4ff0ff30bd
:024ad40070bdb3
:020000040000fa
:024ad600704727
:020000040000fa
:104ad8005b25735d2065786974536c65657028295a
:104ae8000d0a000041545333393d300d000000bf1a
:020000040000fa
:104af80010b5054c22680ab9fff7b2fe034b1868d7
:104b08002368c01a10bd00bfc8050020cc050020ce
:020000040000fa
:104b180010b50023934206d113f0030018bf0120fb
:0e4b280000eb930010bdc45ccc540133f2e7e7
:020000040000fa
:104b360038b50d461446012801d0204638bd214619
:0c4b46002846fff700fc0028f9d0f6e735
:020000040000fa
:024b52007047aa
:020000040000fa
:104b54005ab110b40a44431e11f8014b03f8014f33
:0c4b64009142f9d15df8044b7047704796
:020000040000fa
:104b7000a0f13003092b07d940f020006138052847
:0c4b80008cbf002001207047012070470e
:020000040000fa
:104b8c0013b50446019201aafcf774fe636813f096
:0c4b9c00100f18bf4ff0ff3002b010bd2a
:020000040000fa
:104ba80013b50446019201aafcf768fa636813f08a
:0c4bb800100f18bf4ff0ff3002b010bd0e
:020000040000fa
:104bc4000eb403b503aa52f8041b0192fff71afeb0
:0a4bd40002b05df804eb03b0704777
:020000040000fa
:104bde000cb407b504ab53f8042b0193fff747f859
:0a4bee0003b05df804eb02b070475d
:020000040000fa
:104bf80053797374656d20696e697469616c697a3b
:084c080065642e0d000000bfe1
:020000040000fa
:104c100003783bb1034600bf13f8012f002afbd1f4
:084c2000181a7047184670478e
:020000040000fa
:104c2800034b04481a68504301301860400c704721
:084c3800f40500202d7f954cce
:020000040000fa
:104c4000d0e90f2310b59c1a0165446511b18c425f
:084c5000c8bf5318c36410bd76
:020000040000fa
:104c580010b50446fff7f2fe28b9a368e268c4e974
:084c680005331344a36210bde3
:020000040000fa
:104c700010b4c46a1cb123465df8044b18470068a1
:084c80005df8044bfff757bf7c
:020000040000fa
:104c8800044a136823b9106003610160012070476a
:084c9800002070470006002017
:020000040000fa
:104ca00038b504460d46fff7b3ff2946204400f00f
:064cb000d7f8204638bdd4
:020000040000fa
:104cb60010b50023c25ccc5ca24202d10133002aab
:064cc600f8d1101b10bd27
:020000040000fa
:104ccc0037b54ff0ff344ff0ff35cde90045fff716
:064cdc0091f903b030bda8
:020000040000fa
:104ce20068076c094c836a9074a07ac00080688857
:064cf20000846c820081c9
:020000040000fa
:104cf8000068002808b501da002008bdfff70cfe9f
:064d0800431cfad1f8e79c
:020000040000fa
:024d0e007047ec
:020000040000fa
:104d1000034b19681a4613685b1a8342fbd370472a
:044d2000dc0500208e
:020000040000fa
:104d24009d4d0000194b0000d94e0000d94e0000e3
:044d3400d94e000054
:020000040000fa
:104d380032b1c9b20244034603f8011b9342fbd1c6
:044d4800704700bff1
:020000040000fa
:104d4c0010b50c46fef734ff0378e4b2a34218bf4b
:044d5c00002010bd66
:020000040000fa
:104d6000034600bf11f8012b184603f8012b002a57
:044d7000f8d17047bf
:020000040000fa
:104d740008b500f09df8024b1860586008bd00bfec
:044d8400d405002032
:020000040000fa
:104d880037b500244ff00045cde90045fff734f969
:044d980003b030bd77
:020000040000fa
:104d9c000a440023914201d10020704701f8013be5
:024dac00f8e726
:020000040000fa
:104db000024b40f204521a80704700bf004000418d
:020000040000fa
:104dc000024a136801331360704700bfdc050020fe
:020000040000fa
:104dd00000294ff480630cbf02220022fff7d8b9ec
:020000040000fa
:104de00008b5fff7c7fffff7b4fefff7b2fe08bd37
:020000040000fa
:104df000494e4600696e66004e414e006e616e007f
:020000040000fa
:104e0000494e4600696e66004e414e006e616e006e
:020000040000fa
:0e4e100008b50020fff7fefafbf7f2fefee702
:020000040000fa
:0e4e1e00a0f14103192b98bf40f0200070470f
:020000040000fa
:0e4e2c00a0f16103192b98bf00f05f007047e2
:020000040000fa
:0c4e3c00014b187d704700bf540500209a
:020000040000fa
:0c4e4800014b93f82c007047540500202b
:020000040000fa
:0c4e5400014b1868704700bfdc0500200f
:020000040000fa
:0c4e600010b50446fff77cff204610bd93
:020000040000fa
:0c4e6c0010b50446fff79cf8204610bd6e
:020000040000fa
:0c4e7800014b013818607047f405002061
:020000040000fa
:084e840008b5fff723fb08bd90
:020000040000fa
:084e8c0008b5fef767fa08bd46
:020000040000fa
:084e940008b5fff7d7ff08bdc8
:020000040000fa
:084e9c0008b5fff7cdff08bdca
:020000040000fa
:084ea400286e696c290025004d
:020000040000fa
:084eac0008b5fff7f0fa08bd9c
:020000040000fa
:084eb400004870477006002061
:020000040000fa
:084ebc0083f00043fdf77cba0e
:020000040000fa
:074ec400286e756c6c2900db
:020000040000fa
:064ecc000068fff732be92
:020000040000fa
:064ed2004ff0ff307047b5
:020000040000fa
:044ed80000207047ff
:020000040000fa
:044edc0000207047fb
:020000040000fa
:044ee00000207047f7
:020000040000fa
:044ee400fff7b6ba64
:020000040000fa
:044ee800704700bf50
:020000040000fa
:044eec0000207047eb
:020000040000fa
:0200000400807a
:044000003912003c35
:020000040000fa
:0200000400807a
:044004008000a82a66
:020000040000fa
:0200000400807a
:04400800ffffffffb8
:00000001FF
